:020000040800F2
:10000000887500207D020008F95200083346000878
:10001000F5520008F70E0008455F000800000000D8
:10002000000000000000000000000000C101000806
:10003000DB1200080000000015020008015500084E
:10004000970200089702000897020008970200082C
:10005000970200089702000897020008970200081C
:10006000970200089702000897020008970200080C
:10007000611100089702000871110008970200083A
:100080008111000891110008970200080D0F000867
:10009000FD0E00089702000897020008970200086A
:1000A00097020008970200089702000897020008CC
:1000B00097020008970200089702000897020008BC
:1000C00097020008970200089702000897020008AC
:1000D00097020008DD5E0008F15E0008115F00086D
:1000E000970200089702000897020008970200088C
:1000F000970200089702000897020008970200087C
:10010000970200089702000897020008970200086B
:100110009702000897020008755600089702000829
:1001200097020008A1110008B11100089702000809
:100130009702000897020008970200082D0F000898
:100140001D0F000897020008970200089702000898
:100150009702000897020008C1110008255F0008F7
:10016000970200089702000897020008970200080B
:10017000970200089702000897020008000000009C
:1001800097020008970200089702000897020008EB
:1001900097020008970200089702000897020008DB
:1001A000000000000000000097020008DFF80CD0FB
:1001B00000F026FC00480047FDAD000888750020CF
:1001C0002B4B19680868B0E8F04F80F30988BFF33B
:1001D0006F8F4FF0000080F311887047000000001F
:1001E00006480068006880F3088862B661B6BFF30D
:1001F0004F8FBFF36F8F00DF00BF00BF08ED00E03F
:10020000DFF80C00016841F470010160704700BF25
:1002100088ED00E0EFF30980BFF36F8F144B1A688D
:100220001EF0100F08BF20ED108A20E9F04F10607B
:1002300008B44FF0500080F31188BFF34F8FBFF325
:100240006F8F0EF007FB4FF0000080F3118808BCA1
:1002500019680868B0E8F04F1EF0100F08BFB0EC46
:10026000108A80F30988BFF36F8F704700BF00BF0B
:1002700050120020EFF305807047000006488047C9
:1002800006480047FEE7FEE7FEE7FEE7FEE7FEE77B
:10029000FEE7FEE7FEE7FEE711560008AD010008A5
:1002A00040EA01039B0703D009E008C9121F08C0F8
:1002B000042AFAD203E011F8013B00F8013B521E78
:1002C000F9D27047D2B201E000F8012B491EFBD2EF
:1002D00070470022F6E710B513460A460446194651
:1002E000FFF7F0FF204610BD2DE9FE4F81EA030421
:1002F00004F0004421F0004100944FF0000B23F083
:10030000004350EA01045ED052EA03045BD0C3F319
:100310000A54C1F30A552C44A4F2F3340194A0FB0F
:100320000254C1F3130141F48011C3F3130343F4E6
:10033000801301FB024400FB034E840A970A44EA3F
:10034000815447EA8357A4FB076802958D0A05FB91
:1003500007854FEA932C04FB0C542705029D4FEAB6
:10036000065847EA1637B5EB08056EEB070C870E03
:10037000920E47EA811742EA8312A7FB0201B6EB0D
:100380000B0164EB00042B0D43EA0C335E1844EBC5
:100390001C50DA465146E7FB0201C5F313044FEA4D
:1003A0000B3343EA14534FEA0432019C43EA060339
:1003B000A4F10C040294009CCDE900B400F052F9C1
:1003C00003B0BDE8F08F00200146F9E70EB5C10F7C
:1003D00080EAE0700844CA07002140F233438DE808
:1003E0000E000A460B4600F03DF903B000BD00F0D8
:1003F000004230F000400AD0C10D01F56071C0F339
:10040000160042EA0151C20840071143704700201C
:100410000146704730B5041E71F1000404DB4FF053
:100420000044404264EB0101141E73F1000405DB3B
:100430001C464FF00043524263EB04038B4208BF5B
:10044000824230BD30B5041E71F1000404DB4FF070
:100450000044404264EB0101141E73F1000405DB0B
:100460001C464FF00043524263EB0403994208BF1D
:10047000904230BD01F0004330B421F0004150EA19
:10048000010206D00A0DA2F56072C1F31301002A21
:1004900002DC30BC00207047440F44EAC104C100B4
:1004A000E01830BC00EBC25000F096B830B50B46F7
:1004B000014600202022012409E021FA02F59D4294
:1004C00005D303FA02F5491B04FA02F52844151E68
:1004D000A2F10102F1DC30BD2DE9F05F05460020FC
:1004E00092469B4688460646814640241BE02846A5
:1004F00041464746224600F0A4FA53465A46C01ADF
:10050000914110D311461846224600F08BFA2D1A5D
:1005100067EB01084F4622460120002100F082FAD5
:1005200017EB00094E41201EA4F10104DFDC484610
:1005300031462A464346BDE8F09F00000FB4002331
:1005400000B589B00CA900910B996FF00042CB6007
:100550001E4B06931E4B07930423CDE901321D4A1F
:10056000089202466B46002000F012FB09B05DF8CD
:1005700014FB70B586B006464FF0FF300091CDE910
:100580000101002015460C4604903246694604A835
:10059000FFF7D4FF03460498211825B108B10A4695
:1005A00000E022462A6000280DD0002B02DD0098D2
:1005B000884208D0081B0094CDE901043246694600
:1005C00004A8FFF7BBFF06B070BD0000C90D00080E
:1005D000E70D0008870A00080029A8BF7047401CE3
:1005E000490008BF20F00100704710B4B0FA80FC49
:1005F00000FA0CF050EA010404BF10BC704749B186
:10060000CCF1200421FA04F411FA0CF118BF0121F5
:1006100021430843A3EB0C01CB1D4FEA00614FEAD5
:10062000102042BF002010BC704700EBC3501044A4
:100630000029A4BF10BC7047401C490008BF20F02F
:10064000010010BC704710B5141E73F1000408DAE5
:10065000401C41F1000192185B411A4301D120F086
:10066000010010BD2DE9F04D92469B4611B1B1FA43
:1006700081F202E0B0FA80F22032904600F0D2F926
:1006800004460F4640EA0A0041EA0B0153465A4627
:10069000084313D0114653EA010019D0C8F14002B3
:1006A000504600F0CEF905460E46504659464246A1
:1006B00000F0B8F9084305D0012004E0204639468F
:1006C000BDE8F08D0020054346EAE0762C43374331
:1006D0000A986305E40AA0EB08000022FD0A44EA38
:1006E00047540A3002D500200146E9E701051019F8
:1006F0006941DDE9084500196941BDE8F04DA2E70F
:100700002DE9FE4F804681EA0300C00F0C460090A1
:1007100021F0004123F00045B8EB0200A94105D2C9
:100720004046214690461C460B46024623F00040B8
:10073000104347D0270DC7F30A00C3F30A510290B4
:10074000401A019040286BDAC3F3130040F4801B79
:100750000098924620B10023D2EB030A63EB0B0B07
:1007600001985946C0F14002504600F05BF9064638
:100770000D4650465946019A00F073F910EB0800F7
:100780006141002487EA115284EAE7731A4340D09A
:10079000009A62B3019A012A4FEA075215DC001B46
:1007A00061EB02014FF0004202EA0752CDE900423C
:1007B000001C41F5801132462B46FFF753FF03B072
:1007C000BDE8F08F40462146F9E7001B61EB0201CE
:1007D000001C41F5801300185B412018A2F500179A
:1007E00047EB030140EAD570B6196D4111E06D0881
:1007F0004FEA360645EAC0754FEA0752001B61EB27
:100800000201001C41F5801149084FEA300000192F
:10081000514132462B4603B0BDE8F04FFFF713BFFE
:100820000098012240000023D0EB020263EBE0734A
:10083000009821464FEAE074B8EB000061EB040138
:10084000E9E783F000435BE781F0004158E72DE9D9
:10085000F04D81EA030404F0004B21F000451446FA
:100860004FF0000A23F0004150EA050220D054EA7C
:1008700001021DD0C5F30A570246C5F31303C1F3A5
:100880001300C1F30A5640F4801543F48013A7EB1C
:100890000608101BD64608F2FD3873EB050002D39C
:1008A00008F1010801E092185B41B8F1000F03DA8A
:1008B00000200146BDE8F08D00204FF4801106466F
:1008C00084460EE0171B73EB050705D3121B63EB81
:1008D000050306434CEA010C49084FEA3000921820
:1008E0005B4150EA0107EDD152EA030012D082EADF
:1008F000040083EA0501084305D0101BAB4106D272
:100900000122002306E000224FF0004302E06FF0D6
:10091000010253101AEB06004CEB085110EB0A00D1
:1009200041EB0B01BDE8F04DFFF78DBE2DE9F04D19
:1009300000231A461B1A8A4103DB00200146BDE84A
:10094000F08DC1F30A52C1F3130141F480154FF049
:10095000000BD10702D100186D41521E002704463A
:1009600040F2FF11384601EB620A3E4680460246DD
:1009700000204FF4801100F064F8C2197141BB18D7
:1009800046EB0100B4EB030C75EB000C04D3E41A46
:1009900065EB000517460E46241908F101006D416C
:1009A00080463428E3DDF91946EB0600091BA8410F
:1009B00003D24FF0FF32134601E0002213461BEB37
:1009C000070046EB0A51BDE8F04DFFF73CBEC1F30E
:1009D0000A52C1F3130140F2FF3341F480119A42ED
:1009E00002DA00200146704740F233439A42A2F2F5
:1009F000334202DC524200F024B800F013B8000089
:100A0000064C074D06E0E06840F0010394E807005B
:100A100098471034AC42F6D3FFF7CCFB0C01010829
:100A20002C010108202A04DB203A00FA02F1002000
:100A300070479140C2F1200320FA03F3194390401C
:100A40007047202A04DB203A21FA02F00021704787
:100A500021FA02F3D040C2F1200291400843194626
:100A60007047202A06DBCB17203A41FA02F043EA0E
:100A7000E07306E041FA02F3D040C2F12002914057
:100A8000084319467047C0B24FF4F05100F0E8B97E
:100A90002DE9FF4F087881B09946FF2805D0491C01
:100AA0002D2804D00024002308E000230BE00124BB
:100AB000F9E703EB830300EB4303491C0878FF28A5
:100AC000F7D104B15B4200200090147801462D2C30
:100AD00001D02B2C04D1521C2D2C12D000240094B8
:100AE00000251678FF2E0ED00A24A0FB04C801FBB7
:100AF0000481002700FB0711521C16EB0C00694112
:100B0000EFE70124EBE7994450EA01020ED00024FC
:100B1000AA4D2646DFF8A88200F0B6F982468B4639
:100B2000B9F1000009DAC9F100071BE001980021C2
:100B3000C0E9001105B0BDE8F08F074612E0F807E4
:100B400007D022462B4630464146FFF7CDFB0646EE
:100B5000884622462B4610461946FFF7C5FB044639
:100B60000D467F10002FEAD1B9F1000F32464346FF
:100B70005046594602DAFFF76AFE01E0FFF7B4FB80
:100B8000009A0AB181F00041019AC2E90001D1E75F
:100B90002DE9FF4F1F468DB0D7E901464FF0FF38D2
:100BA0002E2045464FF000090B90B9696D1C0E9838
:100BB0008847396A824688470028F6D1BAF1FF3F54
:100BC0000AD024F4D064002E11DDBAF12B0F08D026
:100BD000BAF12D0F0BD102E0404611B0ABE744F45F
:100BE0008064B9696D1C0E9888478246761E6946F6
:100BF000600501D52D2000E02B208DF8000001F1CB
:100C0000010B0DF1200809E0B9696D1C0E988847A9
:100C100082460F9844F40074761E0560002E02DDB3
:100C2000BAF1300FF0D00B998A453ED144F08004E0
:100C300006E00F99681CA9F1010944F400740860EA
:100C4000B9696D1C761E0E98884782463028F0D010
:100C50002BE00B998A4505D1200603D444F080048B
:100C6000761E18E0504606F05FFB08B30DF1130145
:100C7000761E44F400748B4508D2AAF130000BF8BC
:100C8000010B200607D5A9F1010003E0200602D4DC
:100C900009F101008146A00502D50F99681C086082
:100CA000B9696D1C0E9888478246002ED1DC53E04E
:100CB000002E51DDBAF1650F02D0BAF1450F4BD1CC
:100CC000A00549D5B9696D1C24F44074761E0E98B0
:100CD00088478246002E0CDD2B2804D0BAF12D0F58
:100CE00007D144F48074B9696D1C0E988847824618
:100CF000761EE00501D52D2100E02B2108F8011B0F
:100D0000CDF82C8021E00DF12901761E44F4007409
:100D100088450CD2AAF1300010F0FF0088F80000DE
:100D200002D10B99884509D908F1010806E0E005D0
:100D300001D5244801E042F20F708146B9696D1C6B
:100D40000E98884782460F980560002E04DD5046B5
:100D500006F0EAFA0028D6D1F9690E988847FF20F4
:100D60008BF8000088F800000020069007904B46A2
:100D70006A4608A906A8FFF78BFEA00502D46FF00B
:100D800001002AE714F0240F0AD0E00714D1DDE9AE
:100D900006123868031D3B600068C0E900120BE0D2
:100DA000DDE90601FFF766FB0146E00704D138687C
:100DB000021D3A600068016028460EE700002440EA
:100DC0000000F03FF1D8FFFF426842B1016811F81E
:100DD000013B23B1521EC0E90012184670470121A1
:100DE000C160881E704742685AB1C368016843B940
:100DF00083688B4205D0491E521CC0E900120020B6
:100E000070474FF0FF3070470EB540F2334102910A
:100E10000021CDE900110A460B46FFF723FC03B081
:100E200000BD70B5C1F30A5201F000450024C1F3C2
:100E3000130140F2FF3341F480119A4201DA00209D
:100E400070BD40F233439A42A2F2334203DC524275
:100E5000FFF7F7FD00E090402C43F1D0404270BD19
:100E60007F2801D9002208E0064A02EB5002C007A1
:100E7000127800D1120902F00F02012090400840C0
:100E800070470000780001080EB540F2334202922C
:100E90000022CDE900221346FFF7E4FB03B000BDBA
:100EA00070B58C1810F8015B15F0070301D110F82C
:100EB000013B2A1106D110F8012B03E010F8016B59
:100EC00001F8016B5B1EF9D12B0705D40023521EDC
:100ED0000DD401F8013BFAE710F8013BCB1A921C44
:100EE00003E013F8015B01F8015B521EF9D5A14242
:100EF000D8D3002070BD00BFFEE7000010B5024847
:100F000000F090FA10BD00001813002010B5024840
:100F100000F088FA10BD00001813002010B5024838
:100F200000F080FA10BD00005C13002010B50248EC
:100F300000F078FA10BD00005C1300202DE9F041AC
:100F400004460D46002700260DB9666B00E0A66B2F
:100F5000206800F5D87000EB0510006800F0040070
:100F6000B060B06858B9206800F5D87000EB051083
:100F7000006840F2FF7101EA505030600AE02068DA
:100F800000F5D87000EB051000686FF0604101EAD1
:100F9000D0007060206800F5D87000EB0510006884
:100FA00000F00200F060206800F5D87000EB05103A
:100FB000406800F00F0030613562206800F5D8709D
:100FC00000EB05104068C0F30720F061206800F5D1
:100FD000D87000EB051080683075206800F5D87077
:100FE00000EB05108068010A7175206800F5D87063
:100FF00000EB05108068010CB175206800F5D87011
:1010000000EB05108068000EF075206800F5D870C0
:1010100000EB0510C0683076206800F5D87000EB52
:101020000510C068010A7176206800F5D87000EBE1
:101030000510C068010CB176206800F5D87000EB8F
:101040000510C068000EF0764DB920202168C860F8
:101050002068406920F00A002168486108E02020EB
:10106000216808612068406920F0500021684861CB
:1010700094F83C70222F01D0322F05D120684069AE
:1010800020F40F4021684861CDB994F83C00422813
:1010900004D0622806D072280CD107E0122084F810
:1010A0003C000BE0322084F83C0007E0522084F83A
:1010B0003C0003E0012084F83C0000BF19E094F8F4
:1010C0003C00522804D0622806D072280CD107E0D8
:1010D000122084F83C000BE0222084F83C0007E05A
:1010E000422084F83C0003E0012084F83C0000BF6B
:1010F00000BF204600F0BEFC0020BDE8F08110B526
:1011000004462068406920F001002168486194F895
:101110003C00122805D12068406920F40F40216866
:10112000486194F83C00422804D0522806D0722826
:101130000CD107E0222084F83C000BE0322084F838
:101140003C0007E0622084F83C0003E0012084F8C2
:101150003C0000BF00BF204600F08EFE002010BD06
:1011600010B5024800F09EFE10BD000028170020B8
:1011700010B5024800F096FE10BD00008817002050
:1011800010B5024800F08EFE10BD00006816002069
:1011900010B5024800F086FE10BD0000C816002001
:1011A00010B5024800F07EFE10BD0000E8170020D8
:1011B00010B5024800F076FE10BD000008160020B1
:1011C00010B5024800F06EFE10BD00004818002067
:1011D0000146087810381823B0FBF3F20848805C09
:1011E000C865032A05D908686FF30900001D8865E2
:1011F00003E008686FF309008865886D7047000098
:1012000030F90008014600208A6A8B69CBB932B1F7
:10121000012A0DD0022A03D0032A10D10EE000BF0C
:10122000CB6A03F08073B3F1807F00D1012007E027
:10123000CB6AB3F1C07F00D1012001E000E000BF24
:1012400034E08B69B3F5005F1AD132B1012A07D0BF
:10125000022A03D0032A11D10AE000BF01200EE0C8
:10126000CB6A03F08073B3F1807F00D1012006E0E8
:10127000CB6AB3F1C07F00D1012000E000BF15E0D0
:1012800032B1012A05D0022A04D0032A0CD103E08E
:1012900000BF00BF012008E0CB6A03F08073B3F108
:1012A000807F00D1012000E000BF00BF704730B553
:1012B0000468246824F4802405682C600468636052
:1012C0008468402C04D10468A2600468E16003E0F3
:1012D0000468A1600468E26030BD704710B50EF08C
:1012E00045F80949096888420CD10EF05BF80749B6
:1012F0000968401A064908600648006809680844F9
:101300000449086010BD0000140000201C000020EB
:10131000200000202400002070B504460A46002367
:10132000157D012000FA05F33C4901F500710868BC
:1013300040F001000860086820F47C5008600868EC
:10134000556A40EA05200860C8699843C861A1F55C
:101350000071D069C8B9D1F80C029843C1F80C02E9
:10136000908880B2958940EA054501F5107056696C
:1013700040F83650108880B2158940EA054501F5DD
:101380001070566900EBC6004560D069012819D17C
:10139000D1F80C021843C1F80C02908880B215886D
:1013A00040EA054501F51070566940F836509089BD
:1013B00080B2158940EA054501F51070566900EBC9
:1013C000C6004560906928B9D1F804029843C1F875
:1013D000040204E0D1F804021843C1F804021069C1
:1013E00020B9D1F814029843C1F8140210690128F9
:1013F00004D1D1F814021843C1F81402106A01286C
:1014000004D1D1F81C021843C1F81C02D1F8000223
:1014100020F00100C1F80002002070BD006400400F
:10142000704700002DE9F041044600250026002702
:10143000A8462068C068C0F3001520684069C0F362
:10144000C0062DB126B148F4007810202168C8608C
:1014500020680069C0F3001520684069C0F3801659
:101460002DB126B148F480681020216808612068F9
:10147000406900F0010000283BD0206880687A496C
:101480000840884201D1012000E000200546206884
:10149000806876490840884201D1012000E00020A0
:1014A00006462068806872490840884201D10120C0
:1014B00000E0002007460DB906B9D7B12068806862
:1014C000C0F3400520688068C0F34026206880682B
:1014D000C0F340470DB906B91FB12046FFF70FFE14
:1014E00001E048F400682068806862490843216888
:1014F00088602068C06800F0030520684069C0F378
:10150000400625B11EB100212046FFF717FD2068D7
:10151000006900F0030520684069C0F3001625B19A
:101520001EB101212046FFF709FD206C40EA0800AA
:1015300020642068806900F0010520684069C0F3DC
:10154000002620684069C0F3C0372DB126B11FB115
:10155000206C40F00100206420688069C0F34005E1
:1015600020684069C0F3402620684069C0F3C03756
:101570002DB126B11FB1206C40F00200206420681C
:101580008069C0F3800520684069C0F38026206828
:101590004069C0F3C0372DB126B11FB1206C40F0B7
:1015A000040020642068806900F0700008B9012000
:1015B00000E00020054620684069C0F3C02620688E
:1015C0004069C0F3C03795BB8EB387B3206880698C
:1015D00000F07005402D1BD006DC102D09D0202D09
:1015E0000CD0302D24D10EE0502D16D0602D1FD1FF
:1015F00018E0206C40F0080020641AE0206C40F0F5
:101600001000206415E0206C40F02000206410E001
:10161000206C40F0400020640BE0206C40F0800023
:10162000206406E0206C40F48070206401E007E054
:1016300000BF00BF2068806920F0700021688861C9
:10164000206C78B1042021684860012084F83C00B7
:101650002068406948F65B718843216848612046EC
:10166000FFF7DEFEBDE8F081030000040003000880
:10167000000003101905010070B50446002600257E
:101680000CB9012070BD94F83C0028B9002084F802
:101690003D00204600F0CEF8022084F83C0020688F
:1016A000006820F00200216808602068006840F0AF
:1016B00001002168086000F0E9FE05460EE000F038
:1016C000E5FE401B0A2809D9032084F83C0000BF2E
:1016D000002084F83D0000BF0320D3E72068406865
:1016E00000F001000028EAD02068406800F0010006
:1016F000002875D0A069012806D12068006840F054
:1017000080002168086005E02068006820F0800003
:1017100021680860E069012806D12068006840F06F
:1017200040002168086005E02068006820F0400063
:1017300021680860206A012806D12068006840F00E
:1017400020002168086005E02068006820F0200083
:1017500021680860606A012806D12068006840F0AE
:1017600010002168086005E02068006820F0100083
:1017700021680860A06A012806D12068006840F04E
:1017800008002168086005E02068006820F0080073
:1017900021680860E06A012806D12068006840F0EE
:1017A00004002168086005E02068006820F004005B
:1017B00021680860D4E9020108432169084361698E
:1017C00008436168491E08432168C86120680068B1
:1017D00020F001002168086000F058FE05460FE087
:1017E0001AE000F053FE401B0A2809D9032084F8B0
:1017F0003C0000BF002084F83D0000BF032041E70B
:101800002068406800F001000028EAD120684068A4
:1018100000F0010000B90126012E06D1002020644D
:10182000012084F83C0000202CE7042084F83C00D0
:10183000012027E710B586B0044645492068884254
:1018400037D144480068401C424908600846006897
:1018500001280FD100BF002000903F48006840F0F1
:1018600000703D4908600846006800F00070009074
:1018700000BF00BF032001900220029000200390CF
:10188000032004900920059001A9344800F0E6FCEB
:1018900000221146132000F0D3FE132000F0C3FEF7
:1018A00000221146142000F0CBFE142000F0BBFEF5
:1018B0004BE02B492068884247D100BF00200090B0
:1018C0002548006840F080602349086008460068A9
:1018D00000F08060009000BF00BF1E480068401C00
:1018E0001C4908600846006801280FD100BF00208D
:1018F00000901948006840F00070174908600846D9
:10190000006800F00070009000BF00BF4FF440502E
:1019100001900220029000200390032004900920EF
:10192000059001A90F4800F099FC002206213F20F4
:1019300000F086FE3F2000F076FE002206214020C7
:1019400000F07EFE402000F06EFE06B010BD0000EC
:10195000006400400800002040380240000C0240B3
:101960000068004000040240024689B992F83C0039
:1019700022280BD092F83C00422807D092F83C0075
:10198000622803D092F83C00722801D102207047EF
:10199000012911D192F83C0032280BD092F83C007A
:1019A000522807D092F83C00622803D092F83C00FD
:1019B000722801D10220EAE700BF92F83D00012819
:1019C00001D10220E3E7012082F83D0000BFC9B940
:1019D00092F83C00122804D0322806D052280CD1AC
:1019E00007E0422082F83C000BE0622082F83C00D5
:1019F00007E0722082F83C0003E0222082F83C00DD
:101A000000BF19E092F83C00122804D0222806D02A
:101A100042280CD107E0522082F83C000BE0622003
:101A200082F83C0007E0722082F83C0003E032209C
:101A300082F83C0000BF00BF0020106410684069BD
:101A400048F6017318431368586100BF002082F8FC
:101A50003D0000BF31B91068406940F00A001368CA
:101A6000586105E01068406940F050001368586103
:101A700000208CE710B504464848844266D1606B6C
:101A80000068A0F2012007285ED2DFE800F004051C
:101A900006073D42470000BF00BF00BF606B0078F3
:101AA000401E3F4908700846007800EB00103D4991
:101AB00001EB8000016A3A48007800EB0010394AD7
:101AC00002EB8000006A401C354A127802EB0212D9
:101AD000344B03EB8202106232290AD8304909786C
:101AE00001EB01111A4602EB8100214607F02CFAA6
:101AF00009E02B49097801EB01112A4A02EB810028
:101B0000214606F08DFF20E02146274806F088FF99
:101B10001BE02146254806F083FF16E01F4884425B
:101B200011D12348006A401C214908620846006A16
:101B30000A2804D821461E4807F006FA03E0214689
:101B40001B4806F06DFF00E000BF15E01948844215
:101B500012D1606B0068A0F2012010B101280AD1F7
:101B600004E02146144806F05BFF04E021461348D8
:101B700006F056FF00BF00BF08480068406940F00B
:101B800002000649096848610A480068406940F057
:101B9000020008490968486110BD000018130020C0
:101BA0001000002080190020F8180020B418002030
:101BB0003C1900205C130020A41A0020E81A002021
:101BC0002DE9F04104460E46042500272068806870
:101BD00000F08060B0F1806F0DD02068806800F068
:101BE0000060B0F1006F06D02068806800F080507F
:101BF000B0F1805F7DD100BF94F83D00012802D193
:101C00000220BDE8F081012084F83D0000BF94F877
:101C10003C00222804D0322806D062280CD107E0EC
:101C2000422084F83C000BE0522084F83C0007E09E
:101C3000722084F83C0003E0122084F83C0000BFCE
:101C400000BF2068806800F08060B0F1806F01D133
:101C5000002509E02068806800F00060B0F1006FA6
:101C600001D1012500E00225206800F5C07000EBDD
:101C70000510006800F00101206800F5C07000EB5D
:101C800005100160206B806898B9206800F5C0706D
:101C900000EB05100068216BC968226B128841EACD
:101CA00042510843216801F5C07101EB051108603C
:101CB00015E0206800F5C07000EB05100068216B8E
:101CC0008968226B526841EAC201226BD2681143D3
:101CD0000143206800F5C07000EB05100160206B27
:101CE000007C00F00F00216B0861206800F5C070D7
:101CF00000E0B6E000EB0510406820F00F0120681E
:101D000000F5C07000EB05104160206800F5C07060
:101D100000EB05104068216B09690843216801F553
:101D2000C07101EB05114860206BC07D0106206B7E
:101D3000807D41EA0041206B407D41EA0020216B1B
:101D4000097D0843216801F5C07101EB0511886028
:101D5000206BC07E0106206B807E41EA0041206B33
:101D6000407E41EA0021206B007E0143206800F59F
:101D7000C07000EB0510C160206800F5C07000EB7A
:101D80000510006840F00101206800F5C07000EB0C
:101D90000510016000F07AFB074620E0701CF0B1EE
:101DA00026B100F073FBC01BB04218D9032084F8A1
:101DB0003C001DB980202168886009E0012D03D115
:101DC000E8032168886003E04FF400002168886020
:101DD00000BF002084F83D0000BF032011E74DB98B
:101DE0002068806821490840884201D1012016E01E
:101DF000002014E0012D09D1206880681C490840AA
:101E0000884201D101200AE0002008E020688068B3
:101E100018490840884201D1012000E00020002834
:101E2000BCD094F83C00422804D0522806D0722836
:101E30000CD107E0222084F83C000BE0322084F82B
:101E40003C0007E0622084F83C0003E0012084F8B5
:101E50003C0000BF00BF00BF002084F83D0000BF71
:101E6000CFE6042084F83C000120CAE60300000409
:101E700000030008000003107047014691F8350088
:101E8000022803D08020486501207047052081F892
:101E900035000868006820F001000A681060002022
:101EA000F3E70000F8B50446002000908D48006874
:101EB0004FF41651B0FBF1F7A56D2E6894F85C1045
:101EC00008208840304098B12068006800F0040085
:101ED00070B12068006820F004002168086094F860
:101EE0005C1008208840A860606D40F001006065CB
:101EF00094F85C107C488840304068B120684069A4
:101F000000F0800040B194F85C1077488840A860E9
:101F1000606D40F00200606594F85C107248C01C6F
:101F20008840304070B12068006800F0020048B17D
:101F300094F85C106C48C01C8840A860606D40F04C
:101F40000400606594F85C1010208840304078B33D
:101F50002068006800F0080050B394F85C1010206E
:101F60008840A8602068006800F4802080B1206864
:101F7000006800F4002028B9206CC8B12046216C0C
:101F8000884715E0A06C98B12046A16C88470FE007
:101F90002068006800F4807028B92068006820F08C
:101FA000080021680860206C10B12046216C884729
:101FB00094F85C10202088403040002865D02068CC
:101FC000006800F0100000285FD094F85C1020201A
:101FD0008840A86094F83500052828D1206800685A
:101FE00020F01600216808602068406920F0800019
:101FF00021684861206C08B9A06C28B1206800688D
:1020000020F008002168086094F85C103F208840A8
:10201000A86000BF002084F8340000BF012084F8CD
:102020003500206D10B12046216D8847F8BD20682D
:10203000006800F4802080B12068006800F400206F
:1020400028B9606C10B12046616C88471DE0E06BD8
:10205000D8B12046E16B884717E02068006800F49B
:10206000807068B92068006820F01000216808605E
:1020700000BF002084F8340000BF012084F8350040
:10208000E06B10B12046E16B8847606D38B3606D3E
:1020900000F00100F0B1052084F8350020680068E8
:1020A00020F001002168086000BF0098401C0090EB
:1020B000B84200D905E02068006800F0010000285F
:1020C000F3D100BF00BF002084F8340000BF01201E
:1020D00084F83500E06C10B12046E16C884700BF01
:1020E000A4E7000000000020010080002DE9F0417D
:1020F0000446002500F0CAF9074614B90120BDE8DE
:10210000F081606A00B100BF00BF002084F8340095
:1021100000BF022084F835002068006820F001002C
:10212000216808600AE000F0B1F9C01B052805D954
:1021300020206065032084F83500E0E7206800680F
:1021400000F001000028EED1206805682148054014
:10215000D4E901010843E168084321690843616942
:102160000843A1690843E1690843216A084305431C
:10217000606A042803D1D4E90B01084305432068B1
:1021800005602068456925F00705606A0543606AB7
:1021900004280DD1A06A0543E06A48B12046FFF744
:1021A00031F828B140206065012084F83500A6E7A9
:1021B000206845612046FFF70BF8064694F85C104E
:1021C0003F208840B06000206065012084F8350021
:1021D000002094E73F8010F02DE9F04104460D46C1
:1021E00016461F464FF0000800BF94F8340001283F
:1021F00002D10220BDE8F081012084F8340000BF44
:1022000094F83500012811D1022084F8350000200F
:1022100060653B46324629462046FFF748F820686D
:10222000006840F001002168086006E000BF00205F
:1022300084F8340000BF4FF002084046DAE731B5B9
:1022400000F024F90546009C601C00B1641C00BF2E
:1022500000F01CF9401BA042FAD338BDF8B5024685
:102260000B460025002400200021E6E0012606FAA6
:1022700001F51E6806EA0504AC4273D15E68022EC1
:1022800002D05E68122E13D1CF0802F1200656F854
:1022900027004E07F70E0F26BE40B0434F07FF0E34
:1022A0001E69BE403043CF0802F1200646F82700E1
:1022B00010684F000326BE40B0431E7906F00306A7
:1022C0004F00BE40304310605E68012E08D05E684B
:1022D000022E05D05E68112E02D05E68122E13D138
:1022E00090684F000326BE40B0434F00DE68BE40FA
:1022F00030439060506801268E40B0431E79C6F38B
:1023000000168E4030435060D0684F000326BE4018
:10231000B0434F009E68BE403043D0605E6806F018
:102320008056B6F1805FA8D100BF00260096454ECA
:10233000366846F48046434F3E603E46366806F4B3
:102340008046009600BF00BF3F4E8F0856F827001A
:102350008E07370F0F26BE40B0433C4EB24202D12B
:1023600000262EE068E03A4EB24201D1012628E074
:10237000384EB24201D1022623E0374EB24201D19B
:1023800003261EE0354EB24201D1042619E0344E38
:10239000B24201D1052614E0324EB24201D10626E6
:1023A0000FE0314EB24201D107260AE02F4EB24271
:1023B00001D1082605E02E4EB24201D1092600E0E7
:1023C0000A268F073F0FBE4030431F4E8F0846F846
:1023D0002700284E3068A0435E6806F48036B6F5C4
:1023E000803F00D12043234E3060361D3068A0432B
:1023F0005E6806F40036B6F5003F00D120431D4E5E
:10240000361D3060361D3068A0435E6806F48016C5
:10241000B6F5801F00D12043164E08363060361DB9
:102420003068A0435E6806F40016B6F5001F00D1C0
:102430002043104E0C363060491C1029FFF416AFB3
:10244000F8BD000044380240083801400000024056
:102450000004024000080240000C0240001002404C
:102460000014024000180240001C024000200240FC
:1024700000240240003C014042694A4042617047EA
:102480000AB1816101E00B04836170470148006873
:10249000704700000400002070B504460CB901200C
:1024A00070BD4CF6CC402168086045F2555021685B
:1024B0000860D4E9001048602168A0688860FFF7D0
:1024C000E5FF054606E0FFF7E1FF401B302801D994
:1024D0000320E5E72068C0680028F4D14AF6AA2066
:1024E000216808600020DBE701464AF6AA200A6856
:1024F000106000207047000002480068401C01493D
:10250000086070470400002010B50D48006840F4D2
:1025100000700B4908600846006840F4806008605D
:102520000846006840F480700860032000F0C6F898
:10253000002000F007F800F04BF8002010BD00006C
:10254000003C024070B588B00446002500260022F9
:102550002146362000F074F8362000F064F800BF01
:10256000002001901648006840F0100014490860EF
:102570000846006800F01000019000BF00BF02A9EB
:1025800003A800F0A1FB00F0C7FB45000D48B5FB18
:10259000F0F0461E0C480D49086040F2E7310B4848
:1025A000C160466000210161816001F0BEFA20B97E
:1025B000064801F0D5FA08B070BD0120FBE7000025
:1025C0004038024040420F00001000401814002024
:1025D00010B5032000F072F8002211466FF00B00D6
:1025E00000F02EF8002211466FF00A0000F028F8E3
:1025F000002211466FF0090000F022F80022114677
:10260000501F00F01DF800221146101F00F018F8AE
:1026100000221146901E00F013F800221146501EB1
:1026200000F00EF810BD00BF00F01F020121914024
:102630004209920002F1E022C2F8001100BF704787
:102640002DE9F05F80460D461646002702F056FE43
:10265000074639462A46334601F00700C0F1070A0B
:10266000BAF1040F02D94FF0040A01E0C0F1070AE1
:10267000D14600F1040ABAF1070F02D24FF0000A66
:1026800001E0A0F1030AD4464FF0010A0AFA09FA60
:10269000AAF1010A0AEA020A0AFA0CFA4FF0010B3F
:1026A0000BFA0CFBABF1010B0BEA030B4AEA0B0430
:1026B0002146404602F02AFEBDE8F09F00BF00F030
:1026C0000702064B19684FF6FF031940044B0B43F2
:1026D00043EA0221014B196000BF70470CED00E096
:1026E0000000FA0538B5002400BF00200090234800
:1026F000006840F08050214908600846006800F0FA
:102700008050009000BF00BF0120010491FAA1F1A8
:10271000B1FA81F11A4A42F82100FFF7B7FE0446E8
:1027200007E0FFF7B3FE001BB0F57A7F01D9032065
:1027300038BD1448406800F48030B0F5803FF0D1D7
:102740000120410491FAA1F1B1FA81F10C4A42F859
:102750002100FFF79BFE044607E0FFF797FE001BF2
:10276000B0F57A7F01D90320E2E70648406800F41B
:102770000030B0F5003FF0D10020D9E740380240EA
:1027800000000E4200700040F8B504460025002607
:10279000207800F0010020B9207800F00200022823
:1027A00066D10020CE498866FFF770FE054606E038
:1027B000FFF76CFE401B022801D90320F8BDC94871
:1027C0000068C0F3C0600028F2D1207800F001005A
:1027D00098B147F6C07191FAA1F1B1FA81F1606840
:1027E00088404FF0E04292FAA2F2B2FA82F2A16877
:1027F00091400843BB4984310860207800F0020012
:10280000022821D1B7488430006800F0E0404FF042
:10281000E04191FAA1F1B1FA81F120FA01F6606884
:102820008101207B41EA006040EA0670AD498431B5
:102830000860AC488C30006820F01F00E169491E38
:102840000843A8498C3108600120A5498866FFF734
:102850001DFE054606E0FFF719FE401B022801D9C0
:102860000320ABE79F480068C0F3C0600028F2D0A7
:10287000207800F00400042804D0207800F008003C
:1028800008287DD1002096490867FFF7FFFD05461F
:1028900006E0FFF7FBFD401B022801D903208DE76E
:1028A00090480068C0F340700028F2D1207800F012
:1028B0000400042834D18B488830006800F0E040E0
:1028C0004FF0E04191FAA1F1B1FA81F120FA01F65D
:1028D00047F6C07191FAA1F1B1FA81F120698840FF
:1028E0004FF0706292FAA2F2B2FA82F261699140FC
:1028F00008434FF0E04191FAA1F1B1FA81F106FAF3
:1029000001F10843774988310860081D006820F408
:10291000F851206A401E41EA002072498C3108605B
:10292000207800F00800082834D16E48883000680C
:1029300000F070604FF0706191FAA1F1B1FA81F18D
:1029400020FA01F647F6C07191FAA1F1B1FA81F1CE
:10295000206988404FF0706191FAA1F1B1FA81F1DC
:1029600006FA01F108434FF0E04292FAA2F2B2FAFD
:1029700082F2A169914008435A498831086000E019
:102980001CE0081D006820F44030616A0843554986
:102990008C310860012052490867FFF777FD054632
:1029A00006E0FFF773FD401B022801D9032005E76D
:1029B0004C480068C0F340700028F2D0207800F046
:1029C000200020287ED100BF0020009045484030E4
:1029D000006840F080504349403108600846006874
:1029E00000F08050009000BF00BF3F48006840F4F6
:1029F00080703D490860FFF749FD054606E0FFF796
:102A000045FD401B022801D90320D7E6364800685F
:102A100000F480700028F2D032487030006800F472
:102A200040764EB3208D00F44070B04224D02D4843
:102A30007030006820F4407601202C4908600020A6
:102A40000860284870300660006800F0010098B106
:102A5000FFF71CFD054608E0FFF718FD401B41F29B
:102A60008831884201D90320A8E61E4870300068EA
:102A7000C0F340000028EFD000BF208D00F440706C
:102A8000B0F5407F0CD117480830006820F4F810EA
:102A9000174AA16A1140084312490831086007E04B
:102AA00010480830006820F4F8100E49083108601A
:102AB0000C4870300068218DC1F30B0108430949AF
:102AC000703100E001E0086000BF207800F01000E5
:102AD000102803D194F82C000649086000206DE608
:102AE000000047420038024000700040400E47425C
:102AF000FFFCFF0FE011474270B504460D4600266B
:102B00006D48006800F00F00A84209D26A490D70B4
:102B10000846006800F00F00A84201D0012070BDF7
:102B2000207800F00200022807D16448006820F0F5
:102B3000F000A168084361490860207800F00100B6
:102B4000002877D06068012807D15C480838006801
:102B5000C0F34040B8B90120E1E76068022802D024
:102B60006068032807D1554808380068C0F3406002
:102B700048B90120D3E7514808380068C0F3400045
:102B800008B90120CBE74D48006820F003006168D8
:102B900008434A490860FFF779FC06466068012847
:102BA00010D108E0FFF772FC801B41F288318842A7
:102BB00001D90320B3E74148006800F00C00042865
:102BC000F0D137E06068022810D108E0FFF75EFC22
:102BD000801B41F28831884201D903209FE73748A2
:102BE000006800F00C000828F0D123E0606803289A
:102BF00010D108E0FFF74AFC801B41F2883188427F
:102C000001D903208BE72D48006800F00C000C2848
:102C1000F0D10FE008E0FFF739FC801B41F288316A
:102C2000884201D903207AE72448006800F00C00AC
:102C30000028F0D12048006800F00F00A84209D910
:102C40001D490D700846006800F00F00A84201D031
:102C5000012064E7207800F00400042807D1174819
:102C6000006820F4E050E1680843144908602078C7
:102C700000F00800082808D11048006820F46040DF
:102C8000216940EAC1000D49086000F071F80B4964
:102C9000096801F0F001F02292FAA2F2B2FA82F28F
:102CA000D140074A515CC840064908600020FFF740
:102CB00049FC002033E70000003C02400838024095
:102CC00018F90008000000200F2202600D4A126867
:102CD00002F0030242600B4A126802F0F0028260C6
:102CE000084A126802F4E052C260064A126802F40E
:102CF0006042D2080261044A126802F00F020A60C0
:102D00007047000008380240003C0240014800685B
:102D1000704700000000002000B5FFF7F7FF0749EB
:102D2000096801F4E0514FF4E05292FAA2F2B2FACB
:102D300082F2D140024A515CC84000BD08380240CE
:102D400028F9000800B5FFF7E1FF0749096801F419
:102D500060414FF4604292FAA2F2B2FA82F2D1409C
:102D6000024A515CC84000BD0838024028F90008FA
:102D700070B50021002200230020274C246804F0B5
:102D80000C0424B1042C04D0082C41D103E02348C6
:102D900040E023483EE0204C241F246804F03F011B
:102DA0001D4C241F246804F4800484B11C4CB4FB23
:102DB000F1F5194C241F246847F6C076344096FA82
:102DC000A6F6B6FA86F6F44005FB04F20FE0134CC3
:102DD000B4FBF1F5104C241F246847F6C07634404C
:102DE00096FAA6F6B6FA86F6F44005FB04F20A4C0B
:102DF000241F246804F440344FF4403595FAA5F5B7
:102E0000B5FA85F5EC40641C6300B2FBF3F001E019
:102E1000024800BF00BF70BD083802400024F40023
:102E2000001BB70038B504460025207800F00100EB
:102E3000002874D0F748006800F00C0004280DD07A
:102E4000F448006800F00C00082813D1F148001F76
:102E5000006800F48000B0F5800F0BD1ED48083811
:102E60000068C0F34040002859D06068002856D15F
:102E7000012038BD00BF6068B0F5803F08D1E5484B
:102E80000838006840F48030E249083908601EE0E4
:102E90006068B0F5A02F0DD1DE480838006840F416
:102EA0008020DC49083908600846006840F480301A
:102EB00008600CE0D7480838006820F48030D54915
:102EC000083908600846006820F48020086000BFC8
:102ED000606890B1FFF7DAFA054606E0FFF7D6FA28
:102EE000401B642801D90320C3E7CA48083800689A
:102EF000C0F340400028F1D011E0FFF7C7FA0546C3
:102F000006E0FFF7C3FA401B642801D90320B0E7AD
:102F1000C04808380068C0F340400028F1D120784C
:102F200000F00200022869D1BA48006800F00C00E5
:102F300058B1B848006800F00C00082821D1B54805
:102F4000001F006800F48000D8B9B2480838006853
:102F5000C0F3400020B1E068012801D0012088E7DB
:102F6000AC480838006820F0F800F82292FAA2F283
:102F7000B2FA82F2216991400843A64908390860F3
:102F80003CE0E06828B30120A3490860FFF77EFA1F
:102F9000054606E0FFF77AFA401B022801D9032014
:102FA00067E79C4808380068C0F340000028F1D06B
:102FB00098480838006820F0F800F82292FAA2F247
:102FC000B2FA82F2216991400843924908390860B7
:102FD00014E0002090490860FFF758FA054606E023
:102FE000FFF754FA401B022801D9032041E7894822
:102FF00008380068C0F340000028F1D1207800F0C4
:10300000080008282CD16069A8B101208349086014
:10301000FFF73CFA054606E0FFF738FA401B0228A6
:1030200001D9032025E77B486C300068C0F34000DD
:103030000028F1D014E0002078490860FFF726FA54
:10304000054606E0FFF722FA401B022801D90320BB
:103050000FE770486C300068C0F340000028F1D1E1
:10306000207800F0040004287FD100BF00200090E9
:1030700068483830006840F0805066493831086050
:103080000846006800F08050009000BF00BF644810
:10309000006840F4807062490860FFF7F7F9054660
:1030A00006E0FFF7F3F9401B022801D90320E0E610
:1030B0005B48006800F480700028F2D000BFA06870
:1030C000012808D153486830006840F00100514998
:1030D000683108601DE0A06805280DD14D486830B2
:1030E000006840F004004B496831086008460068F9
:1030F00040F0010008600CE046486830006820F0AD
:1031000001004449683108600846006820F0040066
:10311000086000BFA068A0B1FFF7B8F9054608E055
:10312000FFF7B4F9401B41F28831884201D90320EE
:103130009FE6384868300068C0F340000028EFD0B0
:1031400013E0FFF7A3F9054608E0FFF79FF9401BDE
:1031500041F28831884201D903208AE62D4868303F
:103160000068C0F340000028EFD1A069F0B32948FF
:10317000006800F00C00082871D0A069022858D11E
:10318000002025490866FFF781F9054606E0FFF7AC
:103190007DF9401B022801D903206AE61D48083842
:1031A0000068C0F340600028F1D1D4E9070108436A
:1031B00047F6C07292FAA2F2B2FA82F2616A9140C4
:1031C00008430122A16AC2EB51014FF4403292FA46
:1031D000A2F2B2FA82F2914008434FF0706292FA82
:1031E000A2F2B2FA82F2E16A914000E039E00843CB
:1031F0000849091F0860012007490866FFF746F9DA
:1032000005460FE0FFF742F9401B02280AD90320C8
:103210002FE600000838024000004742800E474277
:103220000070004010480068C0F340600028E9D0FA
:1032300017E000200D490866FFF728F9054606E06B
:10324000FFF724F9401B022801D9032011E60648A4
:103250000068C0F340600028F2D102E0FFE70120DF
:1032600007E6002005E60000003802400000474263
:1032700002460023106800F1500303EB8103186835
:10328000704710B50023046804F1500303EB810379
:103290001A6010BD2DE9F04104460D461646002780
:1032A00000BF207F012802D10220BDE8F08101206B
:1032B000207700BF0220607700BFCA2021684862E3
:1032C00053202168486200BF2068806800F4806055
:1032D000E0B1FFF7DBF8074612E0FFF7D7F8C01BB5
:1032E000B0F57A7F0CD900BFFF202168486200BF8B
:1032F0000320607700BF0020207700BF0320D4E7C1
:103300002068C068C0F380000028E6D1206880688B
:1033100020F4806021688860FFF7B8F8074612E063
:10332000FFF7B4F8C01BB0F57A7F0CD900BFFF20BF
:103330002168486200BF0320607700BF002020772B
:1033400000BF0320B1E72068C068C0F380000028F8
:10335000E6D02068806820F0070021688860206837
:1033600080683043216888602068456120688068F3
:1033700040F480602168886000BFFF2021684862B7
:1033800000BF0120607700BF0020207700BF00BF92
:103390008BE7000010B504460CB9012010BD607F1A
:1033A00020B900202077204600F04EF802206077F8
:1033B00000BFCA202168486253202168486200BFCC
:1033C000204601F0FFFF40B100BFFF2021684862A6
:1033D00000BF042060770120E0E720688068194979
:1033E0000840216888602169606808436169084372
:1033F000216889680843216888602168E06808615D
:1034000020680169208941EA00402168086120683C
:10341000C06820F080002168C8602068006C20F43B
:103420008020216808642068006CA1690843216835
:10343000086400BFFF202168486200BF0120607758
:103440000020ABE7BFFF8FFF034A0168914202D122
:103450000121024A11607047002800403C0E47429B
:103460002DE9F04104460D461646002700BF207F97
:10347000012802D10220BDE8F0810120207700BFA1
:10348000022060774EB9687800F01000102804D14F
:10349000687800F0EF000A30687086B9E87801F0CB
:1034A00084FF0304687801F080FF43EA0023A878D2
:1034B00001F07BFF0343287843EA403711E0687846
:1034C00001F068FF0746A87801F064FF0746E87836
:1034D0000004697840EA0120A9780843297840EA85
:1034E000413700BFCA2021684862532021684862E2
:1034F00000BF204601F066FF60B100BFFF202168D9
:10350000486200BF0420607700BF0020207700BF22
:103510000120B0E716483840216848602068C0683C
:1035200020F080002168C8602068806800F02000DA
:1035300080B9204600F0B8F860B100BFFF202168D4
:10354000486200BF0420607700BF0020207700BFE2
:10355000012090E700BFFF202168486200BF0120E2
:10356000607700BF0020207700BF00BF83E7000026
:103570003FFFFF002DE9F04104460D4616460027A7
:1035800000BF207F012802D10220BDE8F081012088
:10359000207700BF02206077CEB92068806800F0F5
:1035A000400000B102E00020E87000BF287801F080
:1035B000FCFE0304687801F0F8FE43EA0023A878D3
:1035C00001F0F3FE0343E87843EA004716E0206881
:1035D000806800F0400020B1287801F0DBFE07464B
:1035E00002E00020E87000BF28780004697840EA13
:1035F0000120A9780843E97840EA014700BFCA20C2
:103600002168486253202168486200BF204601F0CB
:10361000D9FE60B100BFFF202168486200BF0420CE
:10362000607700BF0020207700BF0120ADE71D4874
:103630003840216808602068806820F48020216874
:103640008860D5E903010843216889680843216837
:1036500088602068C06820F080002168C860206809
:10366000806800F0200080B9204600F01DF860B1AD
:1036700000BFFF202168486200BF0420607700BFC0
:103680000020207700BF01207FE700BFFF202168D6
:10369000486200BF0120607700BF0020207700BF94
:1036A00000BF72E77F7F7F0070B504460025206869
:1036B000C06820F0A0002168C860FEF7E7FE05465C
:1036C00007E0FEF7E3FE401BB0F57A7F01D9032047
:1036D00070BD2068C06800F020000028F1D00020F4
:1036E000F6E710B504460CB9012010BD606A00B9B8
:1036F00000BF0021A16294F8510028B9002084F88D
:103700005000204600F034F8022084F85100206870
:10371000006820F0400021680860D4E901010843F6
:10372000E16808432169084361690843218B01F47A
:1037300000710843E1690843216A0843A16A08430C
:10374000216808600421A06901EA1040616A084309
:10375000216848602068C06920F400602168C86161
:1037600000206065012084F851000020BDE70000C2
:1037700010B586B004461249206888421ED100BFA9
:10378000002000900F48006840F480100D49086048
:103790000846006800F48010009000BF00BF4FF49E
:1037A000607001900220029000200390032004909A
:1037B0000520059001A90448FEF750FD06B010BD94
:1037C0000050014044380240001402402DE9FE4FF1
:1037D00004460D4616461F46DDF830804FF0000ABD
:1037E0000020029081464FF0010B019000BF94F839
:1037F0005000012802D10220BDE8FE8F012084F88C
:10380000500000BFFEF742FE814694F851A0606868
:103810000290BAF1010F0BD00298B0F5827F04D16B
:10382000A06810B9BAF1040F02D002200190D2E0D2
:103830000DB106B117B901200190CCE094F8510008
:10384000012802D1052084F8510000206065A6639C
:10385000E787A7872563E786A786206460642068DA
:10386000006800F04000402805D02068006840F063
:10387000400021680860E068B0F5006F43D16068DF
:1038800010B1E08E012806D128882168C860AD1CDF
:10389000E08E401EE0862FE0BBF1000F10D0E08EDE
:1038A00070B12068806800F00200022808D12888E2
:1038B0002168C860AD1CE08E401EE0864FF0000B12
:1038C000E08F68B12068806800F0010040B1206896
:1038D000C0683080B61CE08F401EE0874FF0010BBF
:1038E00008F1010040B1FEF7D1FDA0EB0900404511
:1038F00002D3032001906EE0E08E0028CCD1E08F4F
:103900000028C9D142E0606810B1E08E012806D1DC
:103910002878216808736D1CE08E401EE0862FE039
:10392000BBF1000F10D0E08E70B12068806800F00D
:103930000200022808D115F8010B21680873E08EF7
:10394000401EE0864FF0000BE08F68B12068806871
:1039500000F0010040B12068C06806F8010BE08F5C
:10396000401EE0874FF0010B08F1010040B1FEF767
:103970008DFDA0EB0900404502D3032001902AE011
:10398000E08E0028CCD1E08F0028C9D14346012227
:1039900002212046CDF8009001F047FD10B1032030
:1039A000019018E04A464146204601F02AFD20B128
:1039B00001200190202060650DE0A06850B900BF93
:1039C000002000902068C068009020688068009007
:1039D00000BF00BF00BF012084F8510000BF0020DD
:1039E00084F8500000BF019806E7042808D14FF082
:1039F000E021096941F004014FF0E022116107E084
:103A00004FF0E021096921F004014FF0E02211613B
:103A1000704770B504462546681EB0F1807F01D31B
:103A200001200FE0681E4FF0E02148610F214FF0A8
:103A3000FF3001F06BFC00204FF0E021886107208F
:103A40000861002070BD7047704710B50346002222
:103A500000BF93F83800012801D1022010BD0120D9
:103A600083F8380000BF22F0FF00CC6840EA04026F
:103A700022F440708C6840EA040222F480604C68B2
:103A800040EA040222F400600C6840EA040222F4D6
:103A900080500C6940EA040222F400504C6940EA6C
:103AA000040222F480408C6940EA040222F40040BF
:103AB0008C6940EA04021868426400BF002083F861
:103AC000380000BF00BFC9E7024600BF92F83800C7
:103AD000012801D102207047012082F8380000BF80
:103AE000022082F839001068406820F070001368E6
:103AF0005860106840680B68184313685860106875
:103B0000806820F0800013689860106880684B68B7
:103B1000184313689860012082F8390000BF002024
:103B200082F8380000BF00BFD5E710B504460CB9D5
:103B3000012010BD94F8390028B9002084F838001D
:103B4000204600F00CF8022084F83900211D20687E
:103B500001F098FD012084F839000020E9E7704762
:103B600001460868C06840F001000A68D060086833
:103B7000006840F001000A6810600020704770473C
:103B800010B5044620680069C0F34000D8B1206831
:103B9000C068C0F34000B0B16FF002002168086156
:103BA000012020762068806900F0030018B12046CB
:103BB000FFF7E5FF05E0204600F002F9204600F09F
:103BC000E7F90020207620680069C0F38000D8B1B2
:103BD0002068C068C0F38000B0B16FF004002168B5
:103BE0000861022020762068806900F4407018B1D6
:103BF0002046FFF7C4FF05E0204600F0E1F820462C
:103C000000F0C6F90020207620680069C0F3C000EB
:103C1000D8B12068C068C0F3C000B0B16FF0080030
:103C200021680861042020762068C06900F0030044
:103C300018B12046FFF7A3FF05E0204600F0C0F8CA
:103C4000204600F0A5F90020207620680069C0F326
:103C50000010D8B12068C068C0F30010B0B16FF098
:103C6000100021680861082020762068C06900F4EF
:103C7000407018B12046FFF782FF05E0204600F0B3
:103C80009FF8204600F084F9002020762068006923
:103C900000F0010058B12068C06800F0010030B1A8
:103CA0006FF0010021680861204600F099F9206852
:103CB0000069C0F3C01058B12068C068C0F3C010DC
:103CC00030B16FF08000216808612046FFF7BBFE2D
:103CD00020680069C0F3801058B12068C068C0F344
:103CE000801030B16FF0400021680861204600F07C
:103CF00083F920680069C0F3401058B12068C0689B
:103D0000C0F3401030B16FF02000216808612046F8
:103D1000FFF79AFE10BD000010B586B00446234997
:103D2000206888421CD14FF440700190022002901C
:103D30000020039004900120059001A91C48FEF783
:103D40008DFA4FF4804001900220029000200390F1
:103D500004900120059001A91648FEF77FFA22E0A1
:103D60002068B0F1804F0DD1012001900220029017
:103D70000020039004900120059001A90C48FEF753
:103D80006DFA10E00C49206888420CD13020019077
:103D9000022002900020039004900220059001A9C7
:103DA0000648FEF75BFA06B010BD000000000140B7
:103DB00000000240001002400004004000040240E5
:103DC000704770B504460D46164600BF94F838009B
:103DD000012801D1022070BD012084F8380000BF05
:103DE000022084F8390036B1042E1BD0082E31D0C1
:103DF0000C2E5ED145E02946206801F0C3FC206806
:103E0000806940F00800216888612068806920F09E
:103E10000400216888612068806929690843216855
:103E2000886147E02946206801F0E4FC2068806949
:103E300040F40060216888612068806920F4806017
:103E40002168886120688069296940EA0120216829
:103E500088612FE02946206801F008FD2068C069CC
:103E600040F008002168C8612068C06920F00400A3
:103E70002168C8612068C069296908432168C86150
:103E800018E02946206801F02DFD2068C06940F443
:103E900000602168C8612068C06920F480602168E2
:103EA000C8612068C069296940EA01202168C861A9
:103EB00000E000BF00BF012084F8390000BF0020EF
:103EC00084F8380000BF00BF85E710B504460CB980
:103ED000012010BD94F8390028B9002084F838007A
:103EE000204600F00DF8022084F83900211D2068DA
:103EF00001F0C8FB012084F839000020E9E7000048
:103F000008B5204A016891420FD100BF00210091FD
:103F10001D49096841F001011B4A116011460968F9
:103F200001F00101009100BF2BE00168B1F1804F69
:103F300011D100BF002100911349091F096841F008
:103F40000101114A121F11601146096801F00101B7
:103F5000009100BF15E00D4A0168914211D100BFE8
:103F6000002100910849091F096841F00201064A31
:103F7000121F11601146096801F00201009100BF93
:103F800000BF08BD0000014044380240000400406A
:103F90007047000030B504460D46012229462068CE
:103FA00001F0E2FB0C492068884203D00B492068ED
:103FB000884201D1012000E0002028B12068406C37
:103FC00040F40040216848642068006840F0010027
:103FD00021680860002030BD00000140000401405D
:103FE00010B5044603492068884201D1FEF784FADF
:103FF00010BD000000100040704770472DE9F047E9
:104000000446206805682068C668206847694FF044
:104010000008C14605F00F08B8F1000F0AD105F0FD
:10402000200038B106F0200020B1204601F0E7FC66
:10403000BDE8F087B8F1000F6DD007F0010018B9A6
:1040400006F49070002866D005F0010030B106F447
:10405000807018B1E06B40F00100E06305F00400EF
:1040600030B107F0010018B1E06B40F00200E063EE
:1040700005F0020030B107F0010018B1E06B40F02C
:104080000400E06305F0080030B107F0010018B14A
:10409000E06B40F00800E063E06B68B305F02000DF
:1040A00028B106F0200010B1204601F0A8FC2068DD
:1040B0004069C0F38019E06B00F0080010B9B9F155
:1040C000000F22D0204601F047FC2068406900F034
:1040D0004000B0B12068406920F04000216848618C
:1040E000606B50B11748616B0865606BFDF7C5FEEA
:1040F00010B1606B016D88470CE02046FFF77DFF33
:1041000008E02046FFF779FF04E02046FFF775FF3F
:104110000020E0638CE705F0800030B106F08000FD
:1041200018B1204601F06CFE82E705F0400030B186
:1041300006F0400018B1204601F01EFC78E700BFF1
:1041400076E700004559000810B504460CB9012077
:1041500010BDA06900B100E000BF94F8390028B993
:10416000002084F83800204600F028F8242084F845
:1041700039002068C06820F400502168C8602046DB
:1041800001F08AFC2068006920F4904021680861F1
:104190002068406920F02A00216848612068C068D2
:1041A00040F400502168C8600020E063202084F8BB
:1041B000390084F83A000020CAE7000010B586B044
:1041C0000446D0492068884248D100BF00200090B2
:1041D000CD48006840F01000CB49086008460068F0
:1041E00000F01000009000BF00BFC020019002202E
:1041F000029001200390032004900720059001A95C
:10420000C248FEF72BF8C248C24908604FF0006070
:1042100048600021BF488160C1604FF48061016146
:104220000021416181614FF48071C161002101620F
:104230004162FDF75BFF18B1B021B7A001F084FE29
:1042400000BFB4486063846300BF0022114625208C
:10425000FEF7F6F92520FEF7E6F950E1B2492068AD
:1042600088426BD100BF00200090A748001F006863
:1042700040F40030A449091F08600846006800F4B3
:104280000030009000BF00BF60200190022002902B
:1042900001200390032004900720059001A9A34862
:1042A000FDF7DCFFA248A34908604FF000604860BA
:1042B0000021A0488160C1604FF48061016100214C
:1042C000416181614FF48071C161002101624162ED
:1042D000FDF70CFF18B1DD218FA001F035FE00BF06
:1042E00094486063846300BF914818309249086025
:1042F0004FF00060486040218F4881600021C1601C
:104300004FF480610161002141618161C1610162FD
:104310004162FDF7EBFE18B1EF217FA001F014FE22
:1043200000BF85482063846300BF00221146262019
:10433000FEF786F92620FEF776F9E0E07F4920684F
:1043400088426CD100BF002000906F48001F0068B9
:1043500040F480206C49091F08600846006800F49A
:104360008020009000BF00BF4FF4407001900220F9
:10437000029001200390032004900720059001A9DA
:104380006A48FDF76BFF6A4860386D4908604FF076
:104390000060486000216A488160C1604FF480611C
:1043A0000161002141618161C16101624162FDF7EA
:1043B0009DFE20B14FF48E7157A001F0C5FD00BFE6
:1043C0005F486063846300BF594830385D490860C6
:1043D0004FF00060486040215A4881600021C16070
:1043E0004FF480610161002141618161C16101621D
:1043F0004162FDF77BFE20B14FF4977146A001F0BA
:10440000A3FD00BF4F482063846300BF0022114614
:104410002720FEF715F92720FEF705F96FE04A4936
:10442000206888426BD100BF0020009036480068A9
:1044300040F02000344908600846006800F0200081
:10444000009000BF00BF4FF4844001900220029012
:1044500001200390032004900820059001A93B4807
:10446000FDF7FCFE2A481838394908608005486085
:10447000002137488160C1604FF4806101610021F3
:10448000416181614FF48071C1610021016241622B
:10449000FDF72CFE20B140F25B111FA001F054FD8E
:1044A00000BF2B486063846300BF194878302949F6
:1044B00008604FF02060486040212648816000215C
:1044C000C1604FF480610161002141618161C1617E
:1044D00001624162FDF70AFE20B14FF4B7710EA0F0
:1044E00001F032FD00BF1B482063846300BF00223F
:1044F00005214720FEF7A4F84720FEF794F806B000
:1045000010BD000000100140443802400004024089
:1045100040640240081600202E2E5C5372635C75C6
:10452000736172742E63000000440040000C02406E
:104530008860024068160020C8160020004800402D
:10454000281700208817002000140140001802409E
:10455000E81700204818002070472DE9F84304466A
:104560000D4616461F464FF0000994F839002028E2
:104570005CD105B116B90120BDE8F88300BF94F8FD
:104580003800012801D10220F6E7012084F8380024
:1045900000BF0020E063212084F83900FDF776FF9A
:1045A0008146A684E6842BE0E08C401EE084A0686F
:1045B000B0F5805F16D14B4600228021204600973F
:1045C00001F052FC08B10320D6E7A846B8F8000075
:1045D000C0F3080021684860206908B9AD1C0FE0ED
:1045E0006D1C0DE04B46002280212046009701F013
:1045F0003BFC08B10320BFE715F8010B21684860B8
:10460000E08C0028D0D14B46002240212046009764
:1046100001F02AFC08B10320AEE7202084F839001D
:1046200000BF002084F8380000BFA5E70220A3E700
:10463000704700BFFEE7000010B50B48006820F48B
:104640004060094908600846006840F480600860DE
:10465000012220210448FDF713FF012251020348E3
:10466000FDF70EFF10BD00000000024000200240D8
:1046700070B50646002415E004F1B001C8B200F0A0
:10468000A1F8012000F09EF8102000F09BF8002512
:1046900004E0304600F0E6F8681CC5B2802DF8DB77
:1046A000601CC4B2082CE7DB70BD000010B501220D
:1046B00002213A48FDF7E4FE002208213748FDF7C1
:1046C000DFFE002005E0002100E0491C6429FCDB3E
:1046D000401C4CF250318842F5DB012208212F4862
:1046E000FDF7CEFEAE2000F06DF8002000F06AF875
:1046F000102000F067F8402000F064F8812000F0FE
:1047000061F8CF2000F05EF8A12000F05BF8C8202F
:1047100000F058F8A62000F055F8A82000F052F854
:104720003F2000F04FF8D32000F04CF8002000F0BC
:1047300049F8D52000F046F8802000F043F8D92051
:1047400000F040F8F12000F03DF8DA2000F03AF8EF
:10475000122000F037F8DB2000F034F8402000F0A1
:1047600031F8202000F02EF8022000F02BF88D20E8
:1047700000F028F8142000F025F8A42000F022F81A
:10478000A62000F01FF8AF2000F01CF80020FFF773
:104790006FFF0021084600F003F810BD0000024042
:1047A00070B504460D4605F1B001C8B200F00AF834
:1047B000102141EA141000F005F804F00F0000F099
:1047C00001F870BD70B50446002220212348FDF792
:1047D00057FE002202212248FDF752FE00253AE052
:1047E0000120B0EBD41F05D1012204211C48FDF7A4
:1047F00047FE04E0002204211948FDF741FE60064F
:10480000040E002005E0002100E0491C0A29FCDB21
:10481000401C0A28F7DB012202211148FDF730FE77
:10482000002005E0002100E0491C0A29FCDB401CB7
:104830001928F7DB002202210948FDF721FE00209C
:1048400005E0002100E0491C0A29FCDB401C0F2880
:10485000F7DB681CC5B2082DC2DB70BD002002402A
:104860000000024070B5044608250122202123489B
:10487000FDF706FE002005E0002100E0491C0A29A2
:10488000FCDB401C0528F7DB002202211C48FDF759
:10489000F7FD002005E0002100E0491C0A29FCDBAF
:1048A000401C0528F7DB23E004F0800028B101223A
:1048B00004211348FDF7E4FD04E000220421104820
:1048C000FDF7DEFD012202210D48FDF7D9FD002094
:1048D00005E0002100E0491C0A29FCDB401C0528FA
:1048E000F7DB002202210648FDF7CAFD6006040E30
:1048F000281EA5F10101CDB2D6D170BD0020024025
:104900000000024010B50F480F49086005204860BC
:1049100000210D488160C1604FF4003101614901FF
:104920004161002181610121C16100210162416277
:104930008162C162FCF7A0FE18B1462103A001F01C
:1049400003FB10BD00640040181300202E2E5C53A2
:1049500072635C63616E2E630000000010B5104846
:10496000104908600520486000210E4881604FF022
:104970004071C1604FF40031016149014161002182
:1049800081610121C1610021016241628162C162D4
:10499000FCF772FE18B15C2103A001F0D5FA10BD3E
:1049A000006800405C1300202E2E5C5372635C6331
:1049B000616E2E630000000008B500BF002000906B
:1049C0002A48006840F4001028490860084600683A
:1049D00000F40010009000BF00BF00BF0020009056
:1049E0000846006840F4800008600846006800F44B
:1049F0008000009000BF00BF002211460C20FDF790
:104A00001FFE0C20FDF70FFE002211460E20FDF7C1
:104A100017FE0E20FDF707FE002211461020FDF7BD
:104A20000FFE1020FDF7FFFD002211461120FDF7BB
:104A300007FE1120FDF7F7FD002211463920FDF792
:104A4000FFFD3920FDF7EFFD002211463A20FDF76A
:104A5000F7FD3A20FDF7E7FD002211464620FDF75D
:104A6000EFFD4620FDF7DFFD08BD000030380240B5
:104A700000B5ABB009F038FC3C4800682A90002231
:104A800001212AA806F08EFF394908603748001D29
:104A9000006829900022012129A806F083FF3549EA
:104AA000086014223149083124A8FBF7F9FB0021E2
:104AB00024A806F05EFF3049086014222B491C31FF
:104AC0001FA8FBF7EDFB00211FA806F052FF2B49A2
:104AD00008601422254930311AA8FBF7E1FB0021B8
:104AE0001AA806F046FF2649086014221F494431DF
:104AF00015A8FBF7D5FB002115A806F03AFF2149C0
:104B0000086014221949583110A8FBF7C9FB00218D
:104B100010A806F02EFF1C490860142213496C31BE
:104B20000BA8FBF7BDFB00210BA806F022FF1749DD
:104B3000086014220D49803106A8FBF7B1FB002163
:104B400006A806F016FF114908601422074994319F
:104B500001A8FBF7A5FB002101A806F00AFF0C49FC
:104B6000086009F0EBFB2BB000BD0000BCFD0008A5
:104B70000413002008130020C4120020C8120020D3
:104B8000CC120020D4120020D8120020E012002005
:104B9000F012002000B587B000BF00200190AB48A4
:104BA000006840F01000A94908600846006800F05D
:104BB0001000019000BF00BF00BF00200190084618
:104BC000006840F0400008600846006800F04000BF
:104BD000019000BF00BF00BF0020019008460068A0
:104BE00040F0040008600846006800F004000190EE
:104BF00000BF00BF00BF002001900846006840F0E1
:104C0000010008600846006800F00100019000BF44
:104C100000BF00BF002001900846006840F002007D
:104C200008600846006800F00200019000BF00BF65
:104C300000BF002001900846006840F008000860AE
:104C40000846006800F00800019000BF00BF00BFE8
:104C5000002001900846006840F480700860084613
:104C6000006800F48070019000BF00BF00BF00200A
:104C700001900846006840F080000860084600681F
:104C800000F08000019000BF00BF00BF0020019035
:104C90000846006840F0200008600846006800F000
:104CA0002000019000BF00BF002284216848FDF76A
:104CB000E7FB002202216748FDF7E2FB01223C21CD
:104CC0006548FDF7DDFB002244F240016348FDF733
:104CD000D7FB8420029001200390002004900590CF
:104CE00002A95B48FDF7BAFA41F670000290012074
:104CF000039000200490059002A95548FDF7AEFAF4
:104D000002200290564803900020049002A95048C7
:104D1000FDF7A4FA022002900120039000200490E5
:104D2000059002A94B48FDF799FA03200290012053
:104D3000039000200490059002A94848FDF78EFAE0
:104D40003C20029001200390002004900320059055
:104D500002A94448FDF782FA41F2100002900020B7
:104D600003900490059002A93948FDF777FA3C209A
:104D700002900120039000200490059002A936487B
:104D8000FDF76CFA2020029001200390002004908F
:104D90000320059002A92F48FDF760FA4FF4007038
:104DA000029001200390002004900320059002A9A6
:104DB0002D48FDF753FA06200290012003900020B1
:104DC0000490059002A92348FDF748FA4FF4F850E3
:104DD00002900220039000200490032005900C20F4
:104DE000069002A91F48FDF739FA0420029002201C
:104DF000039000200490032005900C20069002A947
:104E00001A48FDF72BFA44F240000290012003906B
:104E100000200490059002A91048FDF71FFA4FF4F6
:104E20008060029000200390049002A90F48FDF7D3
:104E300015FA4FF40040029000200390049002A95C
:104E40000348FDF70BFA07B000BD00003038024000
:104E50000010024000000240001C0240001402400A
:104E6000000011100008024000200240000C024027
:104E700010B50848084908600120486040F27121D7
:104E800005488160FDF708FB18B1132103A001F06C
:104E90005BF810BD00300040A81800202E2E5C5397
:104EA00072635C697764672E6300000000B587B0A9
:104EB0002C482D490860002048607C212A488160E8
:104EC000FF21C1600021016141618161FEF762FA49
:104ED00018B1422125A001F037F800212248FEF741
:104EE000C7F943F2F221884230D00A208DF8080039
:104EF0001E208DF8090000208DF80A00059006900C
:104F0000002202A91848FEF735FB18B14F2117A05F
:104F100001F01AF803208DF8040010208DF8050028
:104F200012208DF8060011208DF80700002201A93B
:104F30000D48FEF795FA18B159210CA001F004F8BC
:104F400043F2F22200210848FEF79BF900221146A5
:104F50000548FEF79FF918B1622104A000F0F4FFA4
:104F600007B000BD00280040A01300202E2E5C5387
:104F700072635C7274632E630000000010B50F480A
:104F80000F4908604FF48270486000210C4881602E
:104F9000C160016141614FF4007181613021C161E3
:104FA00000210162416281620A21C162FEF799FB20
:104FB00018B1452103A000F0C7FF10BD005001400B
:104FC000C01300202E2E5C5372635C7370692E63D5
:104FD0000000000000B591B02C482D490860B320B6
:104FE000486000212A48816040F6C311C160002159
:104FF00001614161FEF769FF18B1422125A000F06F
:10500000A3FF00200F9010900FA92148FEF75CFD30
:1050100018B149211FA000F097FF602008904FF4BD
:105020007A70099000200A900B900C900D900E90D1
:10503000002208A91648FEF7C4FE18B1552115A094
:1050400000F082FF0C2208A91148FEF7BAFE18B141
:105050005A2110A000F078FF0020019002900390E8
:10506000049005904FF4005006900020079001A98D
:105070000748FEF7EAFC18B1662106A000F064FFBD
:105080000348FEF749FE11B000BD000000000140DA
:10509000541400202E2E5C5372635C74696D2E6371
:1050A0000000000000B589B04FF080401A49086048
:1050B000B320486000211848816044F61F61C16038
:1050C00000210161FEF701FF18B17A2113A000F061
:1050D0003BFF00200790089007A90F48FEF7F4FC5B
:1050E00018B181210DA000F02FFF602000904FF437
:1050F00087700190002002900490002269460648C3
:10510000FEF75FFE18B18B2104A000F01DFF0248DE
:10511000FEF702FE09B000BD901400202E2E5C5355
:1051200072635C74696D2E630000000000B589B085
:105130001D481E4908605920486000211B488160B5
:10514000C1600161FEF7C1FE18B19E2118A000F0F8
:10515000FBFE00200790089007A91448FEF7B4FC56
:1051600018B1A52112A000F0EFFE602000900020F1
:10517000019002900490002269460C48FEF721FE3F
:1051800018B1AE210AA000F0DFFE042269460748EC
:10519000FEF717FE18B1B32105A000F0D5FE0348B5
:1051A000FEF7BAFD09B000BD00040040CC14002099
:1051B0002E2E5C5372635C74696D2E6300000000D8
:1051C00010B50C480C4908600C48486000210A489A
:1051D0008160C1604FF4806101610C214161002157
:1051E0008161C161FEF7B0FF18B14D2104A000F04C
:1051F000ABFE10BD0010014008150020A086010084
:105200002E2E5C5372635C75736172742E630000A2
:1052100010B50C480C4908604FF4E130486000219B
:1052200009488160C16001610C21416100218161F7
:10523000C161FEF789FF18B1602104A000F084FE6F
:1052400010BD000000440040481500202E2E5C5385
:1052500072635C75736172742E63000010B50C4844
:105260000C4908604FF4E130486000210948816032
:10527000C16001610C21416100218161C161FEF7C2
:1052800063FF18B1732104A000F05EFE10BD0000A2
:1052900000480040881500202E2E5C5372635C7518
:1052A000736172742E63000010B50C480C490860DD
:1052B0004FF4E1304860002109488160C16001611C
:1052C0000C21416100218161C161FEF73DFF18B1F0
:1052D000862104A000F038FE10BD0000001401403B
:1052E000C81500202E2E5C5372635C757361727456
:1052F0002E63000000BFFEE7704700000248006810
:10530000C0F30220704700000CED00E010B500284B
:1053100007DA0A07140E054A00F00F031B1FD454C6
:1053200003E00A07130E024A135410BD18ED00E003
:1053300000E400E02DE9F0412DED048B04460D461C
:1053400016461F46B0EE408AF0EE608AB0EE419AF3
:105350000E4860640E48A064B0EE491AF0EE680A88
:10536000B0EE480A3B46324629462046D4F844C0AF
:10537000E047B0EE491AF0EE680AB0EE480A20465F
:10538000A16C8847BDEC048BBDE8F081DDBE000850
:10539000F1BE0008014600BF080900EB8000420092
:1053A00001F00F001044C0B270470146002203E034
:1053B000521CA1F10A00C1B20A29F9D2100741EA30
:1053C0001060704770B5044600252068C06800F082
:1053D0004000A0B9681E2168C860FDF757F805466F
:1053E00007E0FDF753F8401BB0F57A7F01D90320A1
:1053F00070BD2068C06800F040000028F1D0002097
:10540000F6E7F8B504460D4616462B4600228021E5
:105410002046009600F009F828B1606D40F02000A9
:1054200060650320F8BD0020FCE72DE9F04104464B
:105430000E4617461D46DDF818803FE0681CE0B3B5
:105440002DB1FDF723F8A0EB0800A84236D3206861
:10545000406820F0E000216848606068B0F5827F15
:105460000DD1A068B0F5004F03D0A068B0F5806FF3
:1054700005D12068006820F0400021680860A06A1B
:10548000B0F5005F0ED100BF206800684DF6FF71D7
:105490000840216808602068006840F400502168D6
:1054A000086000BF012084F8510000BF002084F88C
:1054B000500000BF0320BDE8F081FFE7206880684E
:1054C0003040B04201D1012000E00020B842B5D107
:1054D0000020F0E700BF012006F0B8F9FBE700006C
:1054E00010B509F043FF04490968884203D109F067
:1054F00059FF0249086010BD140000201C00002064
:1055000010B506F02EFA10BD10B59EB000BF0020F9
:1055100000903948006840F08050374908600846DC
:10552000006800F08050009000BF00BF00BF002066
:1055300000903248006840F4404030490860084616
:10554000006800F44040009000BF00BF09201290A6
:105550004FF48030139001201790022018904105DD
:10556000199106211A91B4211B9102211C91082145
:105570001D9112A8FDF756FC18B1CC2120A000F017
:10558000E3FCFDF7AFF818B1D3211DA000F0DCFC5F
:105590000F200D9002200E9000200F904FF4A0508D
:1055A00010904FF48050119005210DA8FDF7A4FA3A
:1055B00018B1E12112A000F0C7FC202001900001E9
:1055C0000B9001A8FDF7E0F818B1E8210CA000F05D
:1055D000BBFCFDF79BFB4FF47A71B0FBF1F4204666
:1055E000FEF717FA0420FEF700FA00220F21501EE2
:1055F000FDF726F81EB010BD403802400070004094
:105600002E2E5C5372635C6D61696E2E6300000028
:105610001448006840F4700012490860124800689D
:1056200040F001001049086000200F49083108606F
:105630000D4800680D4908400B4908600C48091DD9
:105640000860081F006820F48020091F08600020FF
:1056500005490C3108604FF000600249803908604C
:105660007047000088ED00E000380240FFFFF6FEC2
:105670001030002410B50248FEF782FA10BD000079
:1056800018140020002202682C4B98420ED0B0F172
:10569000804F0BD02A4B984208D02A4B984205D015
:1056A000294B984202D0294B984201D1012300E0B6
:1056B00000231BB122F070024B681A431F4B984223
:1056C00020D0B0F1804F1DD01D4B98421AD01D4BF9
:1056D000984217D01C4B984214D01C4B984211D0C2
:1056E0001B4B98420ED01B4B98420BD01A4B984242
:1056F00008D01A4B984205D0194B984202D0194B4A
:10570000984201D1012300E000231BB122F4407232
:10571000CB681A4302608B68C3620B688362074BD5
:10572000984202D0094B984201D1012300E00023A6
:105730000BB10B6903630123436170470000014013
:105740000004004000080040000C0040000401403C
:105750000040014000440140004801400018004062
:10576000001C00400020004030B50023012404FA52
:1057700001F3046A9C430462046A02FA01F52C43B3
:10578000046230BD30B5002400220023056A25F0F4
:1057900001050562026A4368846924F0700424F0FC
:1057A00003040D682C4322F002028D682A430F4D3A
:1057B000A84202D00E4DA84201D1012500E00025EB
:1057C0006DB122F00802CD682A4322F0040223F4CE
:1057D000807323F400734D692B438D692B43436021
:1057E00084614D684563026230BD000000000140E5
:1057F0000004014030B5002400220023056A25F092
:1058000010050562026A4368846924F4E04424F4C4
:1058100040740D6844EA052422F020028D6842EAB3
:105820000512104DA84202D00F4DA84201D101250A
:1058300000E0002585B122F08002CD6842EA051221
:1058400022F0400223F4806323F400634D6943EAAD
:1058500085038D6943EA8503436084614D688563F0
:10586000026230BD000001400004014030B5002458
:1058700000220023056A25F480750562026A4368E8
:10588000C46924F0700424F003040D682C4322F44E
:1058900000728D6842EA0522104DA84202D0104DD8
:1058A000A84201D1012500E0002585B122F4006263
:1058B000CD6842EA052222F4806223F4805323F467
:1058C00000534D6943EA05138D6943EA05134360AC
:1058D000C4614D68C563026230BD00000000014034
:1058E0000004014030B5002200230024056A25F49D
:1058F00080550562036A4468C26922F4E04222F4DA
:1059000040720D6842EA052223F400538D6843EA91
:1059100005330A4DA84202D0094DA84201D1012504
:1059200000E0002525B124F480444D6944EA851443
:105930004460C2614D680564036230BD00000140EF
:105940000004014070B50546AC6B0020E085E084A2
:105950002046FEF752FB70BD0168C96821F49071C2
:105960000268D1600168496921F001010268516152
:10597000202180F83A10704710B504462068C068AE
:1059800020F040002168C860202084F839002046BB
:10599000FEF74EFE002010BD2DE9F04104460D46F5
:1059A0001646002794F83A70202F26D105B116B973
:1059B0000120BDE8F08100BF94F83800012801D132
:1059C0000220F6E7012084F8380000BFA562A68512
:1059D0000020E0632268111D33462A46606BFCF705
:1059E000FBFB2068406940F040002168486100BF2F
:1059F000002084F8380000BFDBE70220D9E770B54B
:105A0000044694F83A00222844D1A068B0F5805F9B
:105A100013D1A56A206940B920684068C0F3080026
:105A20002880A06A801CA06219E020684068C0B28B
:105A30002880A06A401CA06211E0206938B9206863
:105A40004068C1B2A26A501CA062117007E02068D1
:105A5000406800F07F01A26A501CA0621170E08DC6
:105A6000401E80B2E08598B92068C06820F490702C
:105A70002168C8602068406920F001002168486101
:105A8000202084F83A002046FEF766FD002070BD15
:105A90000020FCE70220FAE72DE9F041044600254A
:105AA0002068056925F44055E068054320680561D4
:105AB0002068C56849F20C6085432169A0680843E5
:105AC00061690843E169084305432068C5602068AF
:105AD000456925F44075A069054320684561E06982
